{
  "transactions": [
    {
      "hash": "0x7513d514149460d7e8c192d72191664faf462e72b00caff7093ac0ad416b457e",
      "transactionType": "CALL",
      "contractName": null,
      "contractAddress": "0x779877a7b0d9e8603169ddbd7836e478b4624789",
      "function": "transferAndCall(address,uint256,bytes)",
      "arguments": [
        "0x9DdfaCa8183c41ad55329BdeeD9F6A8d53168B1B",
        "3000000000000000000",
        "0x8cc82e1a177db6dcd16bd78cf82af3432c8f50d23b1c3ac690c0e9e64544da17"
      ],
      "transaction": {
        "from": "0x20234ffca1f765b1e17035901e31d7e51906f89b",
        "to": "0x779877a7b0d9e8603169ddbd7836e478b4624789",
        "gas": "0x14cbb",
        "value": "0x0",
        "input": "0x4000aea00000000000000000000000009ddfaca8183c41ad55329bdeed9f6a8d53168b1b00000000000000000000000000000000000000000000000029a2241af62c0000000000000000000000000000000000000000000000000000000000000000006000000000000000000000000000000000000000000000000000000000000000208cc82e1a177db6dcd16bd78cf82af3432c8f50d23b1c3ac690c0e9e64544da17",
        "nonce": "0x1e",
        "chainId": "0xaa36a7"
      },
      "additionalContracts": [],
      "isFixedGasLimit": false
    }
  ],
  "receipts": [
    {
      "status": "0x1",
      "cumulativeGasUsed": "0xc62ada",
      "logs": [
        {
          "address": "0x779877a7b0d9e8603169ddbd7836e478b4624789",
          "topics": [
            "0xddf252ad1be2c89b69c2b068fc378daa952ba7f163c4a11628f55a4df523b3ef",
            "0x00000000000000000000000020234ffca1f765b1e17035901e31d7e51906f89b",
            "0x0000000000000000000000009ddfaca8183c41ad55329bdeed9f6a8d53168b1b"
          ],
          "data": "0x00000000000000000000000000000000000000000000000029a2241af62c0000",
          "blockHash": "0xa535241c8e508f06e05d68a7d8a720153773813877201ef80ab9300b97a390a2",
          "blockNumber": "0x604ba2",
          "transactionHash": "0x7513d514149460d7e8c192d72191664faf462e72b00caff7093ac0ad416b457e",
          "transactionIndex": "0x47",
          "logIndex": "0x5e",
          "removed": false
        },
        {
          "address": "0x779877a7b0d9e8603169ddbd7836e478b4624789",
          "topics": [
            "0xe19260aff97b920c7df27010903aeb9c8d2be5d310a2c67824cf3f15396e4c16",
            "0x00000000000000000000000020234ffca1f765b1e17035901e31d7e51906f89b",
            "0x0000000000000000000000009ddfaca8183c41ad55329bdeed9f6a8d53168b1b"
          ],
          "data": "0x00000000000000000000000000000000000000000000000029a2241af62c0000000000000000000000000000000000000000000000000000000000000000004000000000000000000000000000000000000000000000000000000000000000208cc82e1a177db6dcd16bd78cf82af3432c8f50d23b1c3ac690c0e9e64544da17",
          "blockHash": "0xa535241c8e508f06e05d68a7d8a720153773813877201ef80ab9300b97a390a2",
          "blockNumber": "0x604ba2",
          "transactionHash": "0x7513d514149460d7e8c192d72191664faf462e72b00caff7093ac0ad416b457e",
          "transactionIndex": "0x47",
          "logIndex": "0x5f",
          "removed": false
        },
        {
          "address": "0x9ddfaca8183c41ad55329bdeed9f6a8d53168b1b",
          "topics": [
            "0x1ced9348ff549fceab2ac57cd3a9de38edaaab274b725ee82c23e8fc8c4eec7a",
            "0x8cc82e1a177db6dcd16bd78cf82af3432c8f50d23b1c3ac690c0e9e64544da17"
          ],
          "data": "0x00000000000000000000000000000000000000000000000053444835ec5800000000000000000000000000000000000000000000000000007ce66c50e2840000",
          "blockHash": "0xa535241c8e508f06e05d68a7d8a720153773813877201ef80ab9300b97a390a2",
          "blockNumber": "0x604ba2",
          "transactionHash": "0x7513d514149460d7e8c192d72191664faf462e72b00caff7093ac0ad416b457e",
          "transactionIndex": "0x47",
          "logIndex": "0x60",
          "removed": false
        }
      ],
      "logsBloom": "0x00000005000000000000000000000000000000000020000000000000020000000000000000000000000000000000000000000000000000000000000000000000000000000000000000000008000000000000000000000000000020000020000008000000000000000000000000000000000000000000000000000010000040080000000000000000000000010002800000000020000000000000010000000000000000000000000000000000010000000000000000000000000004000000000000000002000000000000000000000000000000000000000100000000000000000010000000000008800000000000000000000000000000000000000000000080",
      "type": "0x2",
      "transactionHash": "0x7513d514149460d7e8c192d72191664faf462e72b00caff7093ac0ad416b457e",
      "transactionIndex": "0x47",
      "blockHash": "0xa535241c8e508f06e05d68a7d8a720153773813877201ef80ab9300b97a390a2",
      "blockNumber": "0x604ba2",
      "gasUsed": "0xf0e5",
      "effectiveGasPrice": "0xeb2c9cb8",
      "from": "0x20234ffca1f765b1e17035901e31d7e51906f89b",
      "to": "0x779877a7b0d9e8603169ddbd7836e478b4624789",
      "contractAddress": null
    }
  ],
  "libraries": [],
  "pending": [],
  "returns": {},
  "timestamp": 1720987652,
  "chain": 11155111,
  "commit": "acebfa6"
}